:020000040800F2
:1000000030070020A1010008EB260008132100089A
:10001000E92600087F1200080D28000800000000F3
:10002000000000000000000000000000EF260008B3
:100030008112000800000000ED260008F1260008EB
:10004000BB010008BB010008BB010008BB010008A0
:10005000BB010008BB010008BB010008BB01000890
:10006000BB010008BB010008BB010008BB01000880
:10007000BB010008BB010008BB010008BB01000870
:10008000BB010008BB010008BB010008BB01000860
:10009000BB010008BB010008BB010008BB01000850
:1000A000BB010008BB010008BB010008BB01000840
:1000B000BB010008BB010008BB010008BB01000830
:1000C000BB010008BB010008BB010008BB01000820
:1000D000BB010008BB010008BB010008BB01000810
:1000E000BB010008BB010008BB01000800F002F8DA
:1000F00000F047F80AA090E8000C82448344AAF17B
:100100000107DA4501D100F03CF8AFF2090EBAE878
:100110000F0013F0010F18BFFB1A43F0010318473B
:10012000802F0000A02F0000103A24BF78C878C1AB
:10013000FAD8520724BF30C830C144BF04680C60ED
:10014000704700000023002400250026103A28BF35
:1001500078C1FBD8520728BF30C148BF0B60704739
:10016000662902F0C386002070471FB500F04AFBE5
:1001700004000020002102F02FFCE0601FBD10B53C
:1001800010BD00F03FFC1146FFF7EFFF02F06AFBE5
:1001900000F05DFC03B4FFF7F2FF03BC00F0A0FC2D
:1001A0000948804709480047FEE7FEE7FEE7FEE70B
:1001B000FEE7FEE7FEE7FEE7FEE7FEE70448054947
:1001C000054A064B7047000053270008ED00000861
:1001D00030010020300700203003002030030020D1
:1001E0000FB41CB5074B06AA7B44694600900598DE
:1001F00000F0EFFA0020694600F0FEFA1CBC5DF842
:1002000014FB00000D0600002DE9F0474FF0000A36
:1002100089460446C0F820A02046E16888470028A7
:1002200076D0252806D0D4E901219047206A401CC9
:100230002062F1E7E168204600258847C4F81CA049
:1002400006460027C4F818A02A2E09D0304602F02E
:1002500002FB38B304EB8708303EC8F8186019E099
:1002600059F8041B204604EB87029161E168884736
:10027000012F064618D1E069002820DA25F0200574
:100280001DE0D8F8180000EB800006EB4000303885
:10029000C8F818002046E1688847064602F0DBFAF5
:1002A0000028EED1012F0AD02E2E08D12046E16879
:1002B00088477F1C0646022F45F02005C4DBA06955
:1002C000002803DA404245F00105A061E80701D0AB
:1002D00025F01005B6B1A6F14100192802D8203644
:1002E00045F400654A463146204625604D46FFF7F5
:1002F00037FF58B1012806D0ED1D25F0070000F1A9
:10030000080989E704E005F1040985E730468AE732
:10031000206ABDE8F08710B5431C02E010F8011B0D
:1003200071B18107FAD14FF0013202C88C1A8C43A7
:1003300014EAC211F9D0C01A0A0603D0C01E10BDBB
:10034000C01A10BD0A0401D0801E10BD0902FCD0E5
:10035000401E10BD4FF0000200B51346944696466D
:10036000203922BFA0E80C50A0E80C50B1F12001C8
:10037000BFF4F7AF090728BFA0E80C5048BF0CC076
:100380005DF804EB890028BF40F8042B08BF7047D4
:1003900048BF20F8022B11F0804F18BF00F8012B46
:1003A000704770477047704770472DE9FF4F0C4604
:1003B0001E464FF0FF378BB0D2E90001DDF86080B8
:1003C0000A908A46C1F30A5505B93D460021084600
:1003D0004FF00000BAF1000F00F4400005DA00EB26
:1003E00080004FF4400101EA50004FEA9059B9F102
:1003F000010F00DDB9460A9850EA4A000ED044F6D3
:100400001050A5F2FF3545432F14B8F1000F1ED050
:100410007542291E1EDDC9F100021CE0B8F1010F72
:100420004FF0000001D0302103E0F24305E02154F9
:10043000401CB042FBDB30460022002121540B99C6
:10044000C1F80880C1E900200FB0BDE8F08FBD1BE6
:100450006D1CDEE74A4600DA694206A800F05CFA45
:1004600006AB93E8070003AB83E8070050460A9900
:1004700000F03DFB8DE80700A0F500501F3800900C
:100480000398002D0ADD42F21F014A46084400236A
:1004900003A90390684600F0A6FD09E0A0F500500E
:1004A0004A461F38002303A90390684600F0B0FDB8
:1004B0008DE807000004000C03D04FF0FF30410826
:1004C00000E01046B8F1000F03D00022009215465C
:1004D0001EE0751E05D400F099F9303262556D1E8C
:1004E000F9D5B3460122084302D000227F1C04E064
:1004F0002078302801D100227F1E002A099784D05D
:100500001DE0112D07DA00F081F9303262556D1CC3
:1005100050EA0102F5D1084302D00098C8B10EE0BC
:100520000021681E05E0235C625C63542254401E77
:10053000491C8142F7DBAB46A81B401E09900020F6
:1005400004F80B000B98099AC0F80880C0E9002B4A
:100550007AE711264FF0000857E72DE9F04F88465B
:100560000446D21D22F0070191B0D1E90001CDE986
:100570000A0102F04CF902460B98C00F01D02D2061
:1005800007E02068810701D52B2002E0202101EA45
:10059000C000032A099001D0072A05DB0346414623
:1005A000204600F079F90BE12078800601D5E0695A
:1005B00000E00620B8F1650F814606D0B8F1660F5D
:1005C00018D0B8F1670F70D131E00020B9F1110FE8
:1005D000009001DB112301E009F101030AAA01A93E
:1005E0000CA8FFF7E2FEDDE90C70002609F1010519
:1005F000834647E001204B4600904FF000470AAA8F
:1006000001A90CA8FFF7D1FEDDE90DB00C995D46FC
:10061000002610B909F101000D18B9EB050003D44B
:10062000C0F1FF3609F10105A5EB09002BE0B9F196
:10063000010F01DA4FF001090020B9F1110F00900C
:10064000484601DD112300E003460AAA01A90CA8CF
:10065000FFF7ABFEDDE90C704D460026834620789F
:1006600000070AD4AB4500DA5D4601A8012D04DD80
:10067000411911F8011C302907D04F4502DA17F152
:10068000040F04DA012082460FE06D1EEEE7002F12
:1006900002DCED1B3E4403E0781CA84200DD7D1C1B
:1006A000B81B00F1010A4FF000472078000703D47F
:1006B000AA4501DB4FF0FF3A0021B7F1004F0DF1E1
:1006C00043088DF8431024D002202B23002F01DA99
:1006D0007F422D230A21021EA0F1010000DC5FB140
:1006E00097FBF1FC97FBF1F201FB1C7C17460CF128
:1006F000300C08F801CDEEE7A8F101000370218865
:10070000090501D5452100E06521A0F1010800F8A7
:10071000011C09980FA9A1EB0807FF1D00B10120DA
:10072000411901EBEA70A1693844081A401EA06122
:100730002078C00602D42046AFF30080099828B183
:10074000D4E901219047206A401C20622078C0062D
:1007500022D52046AFF300801EE0002E04DBB34517
:1007600002DD01A8805D00E03020D4E9012190473E
:10077000206A401C2062761CAAF101005FEA000A90
:100780000AD100F03FF8C0680168405CD4E901215B
:100790009047206A401C2062281EA5F10105DCDC80
:1007A00007E0D4E9012118F8010B9047206A401CAA
:1007B0002062381EA7F10107F3DC2046AFF300806A
:1007C000032011B041E6000001694A1C026108786B
:1007D000704700B58FB0CDE9013100210591054981
:1007E0007944CDE9031011466846FFF70DFD0FB0BF
:1007F00000BD0000E5FFFFFF0A6802F8010B0A6078
:100800007047000000487047F000002030B5B0F19C
:100810000A024FEA900E71F100034EEA817EB0EBBE
:100820000E0061EB91014FEA101E4EEA017E10EBC3
:100830000E0041EB11114FEA102E4EEA016E10EB43
:100840000E0041EB11214FEA104E4EEA014E10EB23
:100850000E0041EB1141401841F100014FEAD00078
:1008600040EA41704FEAD10110EB80054FEA810464
:1008700044EA907444EB01046D1944EB0404521BE8
:10088000A3414FF0000348BF0A3200D530BD401CE1
:1008900041F1000130BD00002DE9F0411F46044642
:1008A00003260168072A01F4006004DB08B116A5DD
:1008B00005E016A503E008B115A500E015A521F097
:1008C00010002060A069C01EA0610FB1401EA06191
:1008D0002046AFF300804FB1D4E90121384690475C
:1008E000206A401C2062C01C206206E0206AFAE7F1
:1008F000D4E9012115F8010B9047761EF8D2204665
:10090000AFF30080BDE8F0814E414E006E616E0095
:10091000494E4600696E66002DE9F047814616464D
:100920008AB0354878440DC88DE80D0032487844C7
:10093000801C03AC0DC884E80D0041F69B300844D0
:10094000372190FBF1F290FBF1F5A5F1800501FB59
:1009500012041B3C02D56442012000E00020DFF8B5
:1009600098A080460027FA44AAF1BE0A0EE0E007EC
:100970000AD03246684607EB470101230AEB8101A2
:1009800000F046FB8DE8070064107F1C002CEED1C0
:10099000194F7F44AE3F19E0E80715D007EB04106C
:1009A0000DF1180A90E80E008AE80E00C068F042C7
:1009B00001D1981908903246012306A903A800F036
:1009C00027FB03AB83E807006D10641C002DE3D107
:1009D0004FF0010332466946B8F1000F03A802D078
:1009E00000F001FB01E000F013FBC9E90001C9F8C8
:1009F00008200AB0BDE8F087602700000048704773
:100A0000D00000207546FFF7F9FFAE4605006946A5
:100A1000534620F00700854618B020B5FFF7CEFBFF
:100A2000BDE820404FF000064FF000074FF00008EF
:100A30004FF0000B21F00701AC46ACE8C009ACE870
:100A4000C009ACE8C009ACE8C0098D46704710B5D4
:100A50000446AFF300802046BDE81040FFF79ABB84
:100A60004FF0013C50F8042B51F8043B9A4221D13D
:100A7000A2EB0C03934313EACC1317D150F8042BC9
:100A800051F8043B9A4215D1A2EB0C03934313EAAD
:100A9000CC130BD150F8042B51F8043B9A4209D1E6
:100AA000A2EB0C03934313EACC13DBD04FF000000E
:100AB000704700BFD01A01BAB1FA81F101F01801F4
:100AC00022FA01F0CB40C1F12001DBB2C0B2C01A62
:100AD0002CFA01F3D11A914311EAC311E6D1704700
:100AE00001491820ABBEFEE72600020070475FEA0E
:100AF000400C08BF91F0000F4FEA8C234FEAC1224F
:100B000043EA51514FEA1C5018BF00F5F0404FEA3C
:100B1000300018BF41F000415FEA6C5C00F02980B2
:100B2000BCF1FF3F08BF40F080407047130C06BF88
:100B300012044FF0100C4FF0000C130E04BF120201
:100B40000CF1080C130F04BF12010CF1040C930FED
:100B500004BF92000CF1020CD30F04BF52000CF141
:100B6000010C11464FF00002A0F11F00A0EB0C0099
:100B7000704711F0004F08BF704731F000413FF45B
:100B8000D5AF0B0C06BF09044FF0100C4FF0000C52
:100B90000B0E04BF09020CF1080C0B0F04BF090176
:100BA0000CF1040C8B0F04BF89000CF1020CCB0F6D
:100BB00004BF49000CF1010CCCF12003A0EB0C00A8
:100BC00022FA03F302FA0CF241EA030100F10100F8
:100BD000704720F07F4C80EA030023F07F47ACEBA6
:100BE000070303F57C5300F0004003F1FF032DE9F8
:100BF00080494FEA154B09B44FEA144325EA0B4EDE
:100C000024EA03480FF2042606EB132749083E782E
:100C10005FEA320203FB0667C7F5000707FB06F62B
:100C20004FEA54374FEAD64606F1020607FB066C38
:100C3000CCF1005C4FEA1C472CEA074C07FB06F49A
:100C40000CFB06F504EB15464FEA961634BF002060
:100C50004FF000404FEAD13706FB07FC4FEA1C4C2F
:100C60000CFB0BF7D21B03FB0CF761EB07010CFB32
:100C70000EF7B0EB074072EB17420CFB08F734BFDE
:100C8000A2EB0742B2EB074261EB17414FEA0C447B
:100C90004FEA910706FB07FC4FEA1C4C0CFB0BF7D5
:100CA000B0EBC74072EB573203FB0CF734BFA2EB3B
:100CB000C742B2EBC74261EB57310CFB0EF7B0EB0A
:100CC000C70072EB57720CFB08F734BFA2EBC702E8
:100CD000B2EBC70261EB5771039F4FEA816141EAB2
:100CE000921104EBCC044FEAD1374FEA826206FB43
:100CF00007FC42EA90124FEA80604FEA1C4C0CFB62
:100D00000BF7D21B03FB0CF761EB07010CFB0EF793
:100D1000B0EB074072EB17420CFB08F734BFA2EBB5
:100D20000742B2EB074261EB17414FEA8C554FEA9D
:100D3000910704EB9C2406FB07FC4FEA1C4C0CFBC0
:100D40000BF7B0EBC74072EB573203FB0CF734BF25
:100D5000A2EBC742B2EBC74261EB57310CFB0EF777
:100D6000B0EBC70072EB57720CFB08F734BFA2EB75
:100D7000C702B2EBC70261EB577115EB4C254FEA86
:100D8000816141EA92114FEA82624FEAD13742EA29
:100D9000901206FB07FC44F100044FEA80604FEA22
:100DA0001C4C0CFB0BF7D21B03FB0CF761EB070190
:100DB0000CFB0EF7B0EB074072EB17420CFB08F789
:100DC00034BFA2EB0742B2EB074261EB174115EBD0
:100DD0001C154FEA813141EA92414FEA823242EAE0
:100DE00090424FEA80304FEA0C7644F1000448EA22
:100DF00003434EEA0B484FF0000EB2EB080C71EBC8
:100E0000030724BF624639464EEB0E0E4FF0000B2F
:100E10000018524149414BEB0B0BB2EB080C71EB44
:100E200003077BF1000B24BF624639464EEB0E0EE2
:100E30004FF0000B0018524149414BEB0B0BB2EB4A
:100E4000080C71EB03077BF1000B24BF62463946A7
:100E50004EEB0E0E51EA020718BF46F0010616EBE4
:100E60000E7655F1000254F1000103D5BDE8890169
:100E7000BDE80088BDE88901BDE80048B6195241C7
:100E800041EB0101A3F10103704780807F7E7D7CEF
:100E90007B7A7978777676757473727171706F6E0C
:100EA0006E6D6C6C6B6A6A696868676666656464B7
:100EB000636362616160605F5F5E5E5D5D5C5C5B41
:100EC0005B5A5A59595858575756565555555454B0
:100ED000535352525251515050504F4F4F4E4E4D0E
:100EE0004D4D4C4C4C4B4B4B4A4A4A49494948485A
:100EF000484747474746464645454544444444439A
:100F000043434342424242414141002B9C4630D43C
:100F100077002BD01CB54FEA370703B44FF0100011
:100F20004FF01001BAF1000F06D0BCF1000FDCBF8A
:100F300040F0080040F008014FF000000FBCBDE891
:100F400010400BF1010BBBF1010F08BF5FEA17075F
:100F500022BF12F1010211F101014FF0004143F1F2
:100F6000000300F0004043EA00007047F9D357083F
:100F7000D0E746EA064613F1400F4FEA16461FDD5A
:100F800013F1200FDFBF16430A46002120335B42D6
:100F9000BED0C3F1200746EA064602FA07F74FEA39
:100FA000164646EA0706C3F1200722FA03F201FAC1
:100FB00007F721FA03F14FF0000342EA0702A7E71F
:100FC00046EA020646EA06464FEA164646EA0106A1
:100FD000BCBF46EA0646360C4FF000034FF0000255
:100FE0004FF0000194E72DE9804C9A46934670B487
:100FF00091E8380007C831EA400C48BF34EA430C96
:1010000003D5FFF7E6FDFFF780FFF0BCBDE8008CDD
:101010002DE9804C9A46934670B491E8380007C891
:1010200010F0804F08BF13F0804F03D100F005F897
:10103000FFF76BFFF0BCBDE8008C20F07F4780EA33
:10104000030023F07F4C07EB0C03A3F57C5300F067
:101050000040A3F1FE0392F0000F00F0B38095F082
:10106000000F00F077802DE901494FEA11404FEA67
:10107000144621EA004800FB06FC24EA064708FB68
:1010800006F607FB08F800FB07F718EB06484CEBE1
:10109000164C4FEA124B18EB07484FEA15464CEB3B
:1010A000174022EA0B4E0BFB06FC25EA06470EFB17
:1010B00006F607FB0EFE0BFB07F71EEB064E4CEB8E
:1010C000164C4FF000061EEB074E4CEB174B18EB7F
:1010D0000B0840F1000018EB0E0B58EB000840F134
:1010E00000008F1A4FF000013CBFC943661B14BFBC
:1010F000B5EB040C00213CBFC943F61B4FEA174473
:101100004EEA8E0E27EA04454FEA1C4704FB0762AD
:101110002CEA074C05FB07F70CFB05F604FB0CFC5F
:1011200016EB074642EB174216EB0C4642EB1C420D
:101130001BEB060658EB0202414146EA9E0601D52A
:10114000BDE80189B619524141EB0101A3F1010348
:10115000BDE801894FEA14454FEA114724EA0546E4
:1011600021EA074C05FB07F406FB07F70CFB06F129
:1011700005FB0CFC11EB074144EB17444FEA124707
:1011800011EB0C4144EB1C4422EA074C05FB07F22F
:1011900006FB07F70CFB06F605FB0CFC16EB0746F7
:1011A00042EB174216EB0C4642EB1C456A1854F111
:1011B000000148BF7047B619524141EB0101A3F14C
:1011C0000103704795F0000F37D04FEA11424FEA04
:1011D000144721EA024624EA074C02FB07F106FB0A
:1011E00007F70CFB06F402FB0CFC14EB074441EB85
:1011F00017414FEA154714EB0C4441EB1C4125EA1B
:10120000074C02FB07F506FB07F70CFB06F602FB93
:101210000CFC16EB074645EB174516EB0C4645EB69
:101220001C42121951F1000148BF7047B6195241D2
:1012300041EB0101A3F1010370474FEA14454FEA66
:10124000114724EA054621EA074C05FB07F106FB96
:1012500007F70CFB06F24FF0000605FB0CFC12EB47
:10126000074241EB174112EB0C4251EB1C4148BFC6
:101270007047921841EB0101A3F101037047FEE7AB
:101280007047000070B5044600F0FEF80546601C8B
:1012900002D004480078044400F0F6F8401BA04255
:1012A000FAD370BD240000202DE9F84FDFF8B89183
:1012B0000024A9F1040B23460F2709F1040AABF11E
:1012C000040EC9E00125A5402A40AA427DD1674EFF
:1012D000D1F804C0ACEB0608B44532D014DCBCF144
:1012E000030F3AD009DCBCF1000F2AD0BCF1010F8A
:1012F0001CD0BCF1020F31D11DE0BCF1110F17D091
:10130000BCF1120F2AD119E0B8F5881F19D006DCFC
:10131000B8F5803F15D0B8F5801F1FD111E0B8F5A2
:10132000001F0ED0B8F5041F18D10AE0CB6815E0F5
:10133000CB681B1D12E0CB6808330FE0CB680C3381
:101340000CE08B682BB1012B4FF0080303D04561F3
:1013500004E0042302E0056100E00023FF2A01D835
:10136000064601E000F104064FEA840501D9A5F123
:101370002005D6F8008007FA05FC28EA0C0803FAD5
:1013800005F548EA0508C6F800804D68ED0062D50D
:10139000374DAE6946F00106AE61AD6924F0030633
:1013A00005F001050095334D06EB050CDCF80850FF
:1013B000A607360F07FA06F825EA0805DFF8B88011
:1013C000404503D14FF0000817E044E0DFF8AC805F
:1013D000404502D14FF001080FE0DFF8A4804045FE
:1013E00002D14FF0020808E0DFF89880404502D1B2
:1013F0004FF0030801E04FF0040808FA06F848EA45
:101400000508CCF808804D68D9F80060ED024D461B
:1014100001D5164300E096432E604D68DAF800606F
:10142000AD02554601D5164300E096432E604D6847
:10143000DBF80060AD035D4601D5164300E096433E
:101440002E604D68DEF80060ED03754601D5164349
:1014500000E096432E60641C0D682A46E5407FF448
:1014600031AFBDE8F88F0000080401400000111002
:10147000001002400000014000080140000C014043
:1014800000100140001401400148806870470000CE
:101490002400002070B5040025D094F83D000025FC
:1014A00020B984F83C50204600F078FA242084F8D3
:1014B0003D002068016821F0010101602068016899
:1014C00041F4004101602068016821F4004101609D
:1014D00000F0B2FB4D4A6168914201D84C4900E0EE
:1014E0004C49884201D2012070BD4B492368B0FBB2
:1014F000F1F15E6826F03F060E435E60636893423A
:1015000006D94FF4967359434FF47A73B1FBF3F154
:101510002368491C1E6A26F03F0631431962616840
:10152000914210D84900401EB0FBF1F2521CC2F3A8
:101530000B02042A01D2042022E0B0FBF1F0401C8F
:10154000C0F30B001CE0A268F2B301EBC10303EB94
:101550000116431EB3FBF6F35B1C43F480431B05EB
:1015600049D092B301EBC10202EB0111401EB0FB66
:10157000F1F0401CC0F30B0040F4804040F4004008
:101580002168CA694CF6FF739A431043C861D4E9D5
:10159000071001432068026822F0C0021143016075
:1015A000D4E9030101432068826848F2FF339A437B
:1015B00011438160D4E9050108432168CA6822F01B
:1015C000FF021043C86001E00EE016E020680168E9
:1015D00041F0010101602564202084F83D0025636D
:1015E00084F83E50002070BD01EB4106431EB3FB62
:1015F000F6F35B1CB3E70120C2E701EB4101401E9B
:10160000B0FBF1F0401CC0F30B00B7E7A08601006F
:1016100080841E0000093D0040420F002DE9FF4F6D
:1016200083B00025DDE910799A4693460446DDF83B
:1016300048800095FFF728FF064694F83D002028D3
:101640007CD11923012285492046009600F078FEBE
:101650000028F5D194F83C0001286FD0012084F8CF
:101660003C0020680168C90703D1016841F001010D
:1016700001602068016821F400610160222084F883
:101680003D00402084F83E0025646762A4F82A905B
:10169000608D20857248E062CDE9008653465A4647
:1016A0002046049900F04EFD00287DD1208DDFF802
:1016B000B491202768B1012814D00228206801685D
:1016C0001ED041F48061016020684169806900900A
:1016D000B6E02068416981690091016841F40071B8
:1016E0000160ADE02068016821F48061016072B69C
:1016F0002068416981690091016841F400710AE044
:1017000041F40061016072B620684169816900910D
:10171000016821F48061016062B691E0032868D815
:1017200001280CD0022843464FF0000249462046CB
:1017300000960FD000F004FEB0BB10E08BE0324604
:101740004146204600F0A2FE70BB20680069616A35
:1017500008706CE000F0F4FD30BB72B634E0206835
:10176000016821F48061016072B620680069616AD5
:101770000870606A401C6062208D401E2085608D6C
:10178000401E6085384846F2A8110068B0FBF1F0B1
:10179000C0EBC00000EB80000090401E009008D01D
:1017A00020684069C04300E029E040070CD500985C
:1017B000F3E744F8305F6773A573206940F02000B9
:1017C000206162B625731AE02068016841F4007157
:1017D000016020680069616A0870606A401C60628C
:1017E000218D491E2185618D491E618562B6216862
:1017F0001BE032464146204600F048FE18B1012069
:1018000007B0BDE8F08F20680069616A0870606AFF
:10181000401C6062218D491E2185618D491E6185B4
:1018200021684A69D24352070AD409690170606A83
:10183000401C6062208D401E2085608D401E6085AA
:10184000208D00287FF46AAF84F83D7084F83E5004
:1018500084F83C50D4E70220D2E7000002001000D8
:101860000000FFFF04000100300000202DE9FF4FC1
:1018700083B09A46DDE9119793460446DDF840802F
:10188000FFF702FE054694F83D0020287FD119237A
:10189000012240492046009500F052FD002876D1F3
:1018A00094F83C00012872D0012084F83C002068A4
:1018B0000168C90703D1016841F001010160206896
:1018C000016821F400610160212084F83D0040207E
:1018D00084F83E0000262664C4F82480A4F82A90E8
:1018E000608D20852C48E062CDE9007553465A464C
:1018F0002046049900F0A4FC70B930E02A4639462D
:10190000204600F0FBFD58B1206C042804D120686B
:10191000016841F400710160012007B0BDE8F08F5B
:10192000606A216800780861606A401C6062218DED
:10193000491E89B22185628D521E628522685369D3
:10194000DB435B070BD469B100781061606A401C0F
:101950006062208D401E2085608D401E6085208D38
:101960000028CBD12A463946204600F0BDFC00288D
:10197000CAD154F83D0B016841F400710160202088
:1019800004F81E09E67766770020C6E7FFE7022025
:10199000C3E70000020010000000FFFF10B586B092
:1019A0000021009101910291039100680F49884242
:1019B0001AD10F4CA06940F00800A061A0696946E7
:1019C00000F008000490C020009012200190032035
:1019D00003900848FFF768FCE06940F40010E061FC
:1019E000E06900F40010049006B010BD00540040FF
:1019F00000100240000C0140024881680278114446
:101A00008160704724000020074810B5016841F04C
:101A100010010160032000F067F80F2000F006F8C5
:101A200000F024F8002010BD0020024070B50D4DDC
:101A300004464FF47A712878B1FBF0F00A4909683E
:101A4000B1FBF0F000F0CEFA48B9102C07D200221A
:101A50002146501E00F028F800206C6070BD012067
:101A600070BD000024000020300000200C4808B5A4
:101A7000816941F001018161816901F001010091F9
:101A8000C16941F08051C161C06900F0805000908F
:101A90000448416821F0E06141F00071416008BDF7
:101AA0000010024000000140F0B40E4B1B680C46D1
:101AB000C3F30223C3F10705042D00D90425191D22
:101AC000072901D2002300E0DB1E012606FA05F1FA
:101AD000491E214099409E40761E16403143F0BC7D
:101AE00000F0A9BE0CED00E0064900F0070208680E
:101AF0004FF6FF03184040EA0220034A10430860F3
:101B0000704700000CED00E00000FA052DE9F047F9
:101B10000F46050061D0434E306800F00700B84220
:101B200009D2306820F0070038433060306800F098
:101B30000700B84251D128683B4C810712D54007B5
:101B400003D5606840F4E06060602878000703D542
:101B5000606840F4605060606068A96820F0F00040
:101B6000084360602878C00728D06868012810D032
:101B70002168022810D0890700292EDA616821F037
:101B8000030101436160FFF77FFC804641F2883921
:101B90000DE021688903EFE78901EDE7FFF774FCA9
:101BA000A0EB0801494502D90320BDE8F087606831
:101BB000696800F00C00B0EB810FEFD1306800F0E5
:101BC0000700B8420BD9306820F007003843306076
:101BD000306800F00700B84201D00120E5E728781E
:101BE000400705D56068E96820F4E060084360605C
:101BF0002878000706D56068296920F4605040EA1B
:101C0000C100606000F038F86168084AC1F3031150
:101C1000515CC8400649086006480068FFF706FFA7
:101C20000020C2E70020024000100240F22F00080E
:101C30003000002028000020044805490068496859
:101C4000044AC1F30221515CC840704730000020B3
:101C50000010024002300008044805490068496845
:101C6000044AC1F3C221515CC840704730000020D3
:101C700000100240023000080E4A51680E4801F080
:101C80000C03042B11D0082B0FD10C48C1F3834354
:101C9000C903C05C0AD55168084AC1F34041921E8D
:101CA000515C054A5043B0FBF1F07047044948438A
:101CB000704700000010024000127A00E22F000876
:101CC00000093D002DE9F84F040070D02078C04D88
:101CD000C00749D06868C0F38100012807D0686850
:101CE000C0F38100022809D16868C00306D52868BE
:101CF000800339D560680028E7D035E06068B0F52A
:101D0000803F0BD010B1B0F5A02F11D0286820F47F
:101D100080302860286820F4802002E0286840F4A1
:101D200080302860606890B1FFF7AEFB06460AE09D
:101D3000286840F480202860F0E700BFFFF7A4FB8C
:101D4000801B642873D828688003F7D50CE0FFF760
:101D50009BFB064605E000BFFFF796FB801B64284F
:101D6000F0D828688003F7D420789A4E80074FF087
:101D700001094FF0000839D5686810F00C0F07D042
:101D80006868C0F38100022809D16868C00306D4DE
:101D90002868800714D52069012808D110E020693F
:101DA000B0B1C6F80090FFF76FFB074605E00AE107
:101DB000FFF76AFBC01B0228C4D828688007F7D544
:101DC0002868616920F0F80040EAC10028600DE051
:101DD000C6F80080FFF758FB074604E0FFF754FB06
:101DE000C01B022823D828688007F7D42078000772
:101DF0002CD57948A169D9B1C0F80090FFF744FB10
:101E0000074604E0FFF740FBC01B02280FD8686AB2
:101E10008007F7D571484FF4FA510068B0FBF1F034
:101E2000009000BF0098411E0091FAD20EE080E0C1
:101E3000C0F80080FFF728FB074604E0FFF724FB0B
:101E4000C01B022875D8686A8007F7D4207840073D
:101E500060D5E8690027C00008D4E86940F08050E8
:101E6000E861E869012700F0805000905C48016853
:101E7000C90513D40168834641F480710160FFF7FE
:101E800003FB824606E000BFFFF7FEFAA0EB0A0064
:101E900064284ED8DBF80000C005F5D5E0680128BD
:101EA0000AD008B1052813D0286A20F00100286262
:101EB000286A20F0040002E0286A40F0010028624D
:101EC000E06841F2883B98B1FFF7DEFA82460BE00A
:101ED000286A40F004002862EEE700BFFFF7D4FA5A
:101EE000A0EB0A0159455AD8286A8007F6D50CE0BC
:101EF000FFF7CAFA824605E0FFF7C6FAA0EB0A012F
:101F000059454CD8286A8007F6D41FB1E86920F0FB
:101F10008050E861E06988B36968C1F381010229F2
:101F200044D00228C6F8608004D0FFF7ADFA04461A
:101F300038E034E0FFF7A8FA074604E0FFF7A4FA18
:101F4000C01B02282BD828688001F7D4206AB0F57E
:101F5000803F05D16868A16820F4003008436860BC
:101F6000D4E908010843696821F4741108436860E2
:101F7000C6F86090FFF788FA044606E025E000BF47
:101F8000FFF782FA001B022809D828688001F7D5DC
:101F90001BE000BFFFF778FA001B022802D90320DC
:101FA000BDE8F88F28688001F4D40EE00128F7D04E
:101FB0006868226A00F48031914204D1616A00F4B9
:101FC0007010884201D00120EAE70020E8E7000015
:101FD00000100240000042428004424230000020D3
:101FE0000070004010B5401EB0F1807F01D3012089
:101FF00010BD4FF0E02460610F21601700F01BFC62
:102000000020A06107202061002010BD70B50400F1
:1020100004D094F84100002510B106E0012070BD05
:1020200084F84050204600F023F8242084F8410032
:102030002068C16821F40051C160204600F08AFB8D
:102040002068016921F4904101612068416921F013
:102050002A0141612068C16841F40051C160656492
:10206000202084F8410084F842006563002070BDA0
:1020700030B585B000240094019402940394006864
:102080001449884223D11448C16941F40031C16127
:10209000C16901F400310491816941F00401816159
:1020A00080690E4D00F0040004900420009002208E
:1020B00001900320039069462846FFF7F5F80820B1
:1020C000CDE90004694628460294FFF7EDF805B013
:1020D00030BD0000004400400010024000080140F4
:1020E00090F84130202B01D00220704779B172B1B5
:1020F00001628284C28400214164212180F8411060
:102100000068C16841F08001C16000207047012073
:102110007047FEE701684A69D24352050FD46FF455
:1021200080624A61002140F8301F2022427381738F
:10213000026942F00402026101730120704700202D
:10214000704700002DE9F84F0446006889460B9D52
:1021500001689846174641F4806101602068016873
:1021600041F48071016000954FF0011B0022594637
:1021700020460A9B00F0E4F84FF4007A40B1206852
:102180000068C00501D5C4F840A00320BDE8F88F61
:10219000216809F0FE0008612B46284920460A9A6A
:1021A00000F016F9F0BB20684169806900902A466A
:1021B00020460A9900F0A2F940B1206C04283AD1D7
:1021C0002068016841F40071016034E0FEB2B8F1AA
:1021D000010F09D02168380A08612A4620460A9969
:1021E00000F08CF90028E8D1206806612A462046D4
:1021F0000A9900F083F90028DFD12068016841F4D2
:102200008071016000950022594620460A9B00F02B
:1022100097F80028B3D1216809F0FF0040F00100D1
:10222000086100E007E02B46044920460A9A00F0C6
:10223000CFF80028AAD00120A8E700000200010082
:102240002DE9F843044600680D46DDE9089701686A
:102250009846164641F4807101604B4600224FF0CB
:1022600001112046009700F06BF848B12068006823
:10227000C00502D54FF4007020640320BDE8F88348
:10228000216805F0FE0008613B464A461549204694
:1022900000F09EF888B920684169806900903A464C
:1022A0004946204600F02AF948B1206C042804D1A0
:1022B0002068016841F4007101600120DEE7F5B299
:1022C000B8F1010F09D02168300A08613A46494641
:1022D000204600F013F90028E7D1206805610020AE
:1022E000CCE700000200010070B516460D4604461A
:1022F0001EE02046FFF70EFF08B1012070BD681CEC
:1023000016D0FFF7C1F8801BA84200D885B9206815
:102310004069C04340070BD5002044F8300F20210E
:102320006173A073216941F0200121612073E4E70A
:1023300020684069C0434007DBD4002070BD000026
:102340002DE9F047984617460D460446C1F3074667
:10235000DDF820902AE000BFB8F1FF3F26D0FFF75C
:1023600093F8A0EB0901414502D8B8F1000F1DD147
:102370002068012E16D0806925EA00000004000CB8
:1023800012D00020B84211D1002044F8300F202193
:102390006173A073216941F0200121612073012044
:1023A000BDE8F0874069E7E70120EBE72068012EF0
:1023B0000AD0806925EA00000004000C06D0002045
:1023C000B842C9D00020EBE74069F3E70120F7E706
:1023D0002DE9F047984616460D4604464FF0000991
:1023E0004FF0200AC1F3074723E020684069C0434B
:1023F000400515D42068016841F40071016021682E
:102400006FF480604861C4F8309084F83DA084F88F
:102410003E90216C41F00401216484F83C9021E05D
:10242000701C06D0FFF730F8A0EB0800B04203D8CC
:1024300016B1012F1FD021E02068012F15D080692F
:1024400025EA00000004000C18D000BF44F8309FBB
:1024500084F80DA084F80E90216941F020012161DB
:1024600084F80C900120BDE8F087406925EA00005F
:102470000004000CEAD12068406901E0206880690E
:1024800025EA00000004000CAFD1ECE72DE9F04193
:10249000002590460E460446202728E04069C043A8
:1024A000C0060CD454F8301B6FF01000486144F89B
:1024B00010596777A577206A2062257714E0FEF728
:1024C000E3FFA0EB0800B04200D886B9206840695D
:1024D000C04340060BD544F8305F6773A57320698D
:1024E00040F02000206125730120BDE8F0812068C4
:1024F0004169C9434906D1D40020F6E770B51646B4
:102500000D4604461EE02046FFF704FE08B10120F8
:1025100070BD681C16D0FEF7B7FF801BA84200D81C
:1025200085B920684069C04300060BD5002044F8F7
:10253000300F20216173A073216941F020012161D6
:102540002073E4E720684069C0430006DBD4002024
:1025500070BD0000F0B585B0012504A8CDE90005E7
:102560004FF47A742B467522D02102941B48FFF752
:1025700055F89DF8100068282ED1002703AE8DF87D
:102580000C700096CDE9015401236B22D021134831
:10259000FFF76CF907208DF80C000096CDE9015487
:1025A00001231922D0210D48FFF760F98DF80C7036
:1025B0000096CDE9015401231C22D0210748FFF7E2
:1025C00055F98DF80C700096CDE9015401231B22BA
:1025D000D0210248FFF74AF905B0F0BD34000020D1
:1025E000F0B585B04FF47A72062103A88DE8070094
:1025F00001233B22D0211848FFF710F8BDF80C004A
:10260000164C40BA00B22080BDF80E1049BA0EB286
:102610006680BDF8101049BA0DB2A58000F084FBA9
:102620006FF00D073A4600F095FC00F0EBF9E06022
:10263000304600F079FB3A4600F08CFC00F0E2F9FD
:102640002061284600F070FB3A4600F083FC00F061
:10265000D9F9606105B0F0BD340000200000002011
:10266000F0B585B04FF47A72062103A88DE8070013
:1026700001234322D0211948FEF7D0FFBDF80C00FA
:10268000174C40BA00B2E080BDF80E1049BA0EB245
:102690002681BDF8101049BA0DB2658100F044FBE7
:1026A000104F00223B4600F0E7F900F0ABF9A061C3
:1026B000304600F039FB00223B4600F0DDF900F027
:1026C000A1F9E061284600F02FFB00223B4600F014
:1026D000D3F900F097F9206205B0F0BD3400002076
:1026E0000000002000606040FEE7FEE77047704792
:1026F000FFF782B930B58FB028216846FDF72AFE72
:1027000014210AA8FDF726FE01210804CDE90010D6
:102710000024029402250491CDE907504FF4E01003
:1027200009906846FFF7CEFA08B172B6FEE70F20AF
:10273000CDE90A054FF48060CDE90C4002210AA8DA
:102740000E94FFF7E3F9002801D072B6FEE70FB050
:1027500030BD704770B5044600680169E26821F435
:102760004051114301612169A06808436169084330
:102770002168CA6841F20C639A430243CA60206828
:102780004169A26921F44071114341611E492068E9
:10279000884202D1FFF760FA01E0FFF74DFA00EB43
:1027A000C00101EB0012606864218000B2FBF0F30D
:1027B000B3FBF1F36FF018067343B2FBF0F5B2FB15
:1027C000F0F605EB8305322303EB0515B5FBF1F5B8
:1027D000B6FBF1F605F0F00505EB0615B2FBF0F6D9
:1027E000B2FBF0F0B0FBF1F06FF01802504306EBD3
:1027F000800003EB0010B0FBF1F0216800F00F0047
:102800002844886070BD000000380140FEE74900A0
:1028100050EAC12018BF04204A0D18BF40F0010043
:1028200040F2FF72B2EB515F08BF40F00200012896
:1028300008BF052070470907090E002804DB00F1D6
:10284000E02080F80014704700F00F0000F1E02055
:1028500080F8141D704730380A2801D201207047D3
:1028600000207047B6B0FFF7CFF8FFF743FF4648A8
:10287000816941F020018161816901F020010091AD
:10288000816941F004018161816901F004010091D5
:10289000816941F00801816180693C4900F00800CC
:1028A00000903B48002401603A49C0E901144FF40C
:1028B0008041C0E9034144618461C4610462FEF760
:1028C000E9FD08B172B6FEE7314833495430016082
:1028D0004FF4E131C0E901140C21C460C0E90441A6
:1028E0008461C461FFF792FB08B172B6FEE7FFF79F
:1028F00031FE2A4C4FF47A79FFF772FEFFF7B0FEF3
:10290000606900F07DFA07468846206900F078FA91
:1029100005460E46E06800F073FA8DE8E0010B46CC
:1029200002461FA104A8FDF75BFC04A8FDF7F3FC19
:1029300082B2174804A95430FFF7D2FB4846FEF78D
:10294000A1FC206A00F05CFA07468846E06900F0C6
:1029500057FA05460E46A06900F052FA8DE8E001EC
:102960000B46024615A104A8FDF73AFC04A8FDF7A2
:10297000D2FC82B2064804A95430FFF7B1FB4846A6
:10298000FEF780FCB8E70000001002400054004051
:1029900034000020A0860100004400400000002018
:1029A00041783D252E32662041793D252E32662024
:1029B000417A3D252E32660D0A00000047783D25FC
:1029C0002E32662047793D252E326620477A3D25F6
:1029D0002E32660D0A00000010B500290AD00878D2
:1029E000002807D005487844FEF73AF8002801D0BF
:1029F000002010BD0248784410BD0000DA06000037
:102A0000D206000021F00042A2F16052B2F5801F10
:102A100001F0004328BFD2F17F6C0BD95FEA001CA4
:102A200043EAC20242EB507018BF704728BF20F043
:102A300001007047B2F5801FBCBF184670474FEACF
:102A4000410C1CF5001F02D2084600F04ABA70B5CE
:102A500000F081F900000089FFF7F6BF4FF0004059
:102A6000A0F580007047000002494FF0000000F020
:102A70003FBA00BF0000F87F2DE9C04130B4DFF855
:102A8000A0C23CEA111418BF3CEA131400F0EC8019
:102A900081EA03051CEA111444EAD57418BF1CEA44
:102AA000131500F0C780A4EB05044FF0004545EA7C
:102AB000C12145EAC32341EA505143EA525304F18C
:102AC0007F74994204F500344FEAC0204FEAC222D5
:102AD00008BF904200F09C804FEA13650FF2401649
:102AE000765D4FEA134506FB05F7C7F1807706FBD5
:102AF00007F74FEAD737A7FB03687642C8F5803857
:102B0000A7FB06CE38BFA8F1010807FB08E64FF087
:102B1000000EA6FB028CE6FB03CEDCF1000CCEF12E
:102B2000004E38BFAEF1010EA6FB0C584FF0000767
:102B30004FF00005E6FB0E87A1FB08C6A0FB07CE01
:102B400016EB0E0645F10005E1FB076515F1E04EB9
:102B50007EBFA4F580345FEA46066D4116F180071A
:102B600045F100054FEA17274FEA066647EA056771
:102B7000A6F1DE46B6F1805F4FEA15251FD938462B
:102B800024F0010C05EBC471BCF1FE6F01EB0C11DC
:102B900002D8F0BCBDE8008124425CBF01F5801E74
:102BA0009EEAC47F02D4F0BCBDE80081244238D440
:102BB000F0BCA1F1C041BDE8004100F01AB94FEAF4
:102BC000D22242EA43524FEAD323A7FB02864FEABE
:102BD000D02040EA415007FB03661EEA0E0F4FEA81
:102BE000D12105FB026658BFA6EB0056B6EB005696
:102BF0004FEA520E4EEAC37E18EB0E0E56EB530E02
:102C0000BDD518EB02085E417F1C55F10005B6E703
:102C10004FF480154FF000074FF000064FF000080A
:102C2000ADE7F0BC4FF0000001F1C04101F0004100
:102C3000BDE8008111EA0C1F0CEA131500D00CE06E
:102C400013EA0C1F00F025804FF00000F0BC81EA71
:102C5000030101F00041BDE80081F0BCBDE8004186
:102C600081EA030100F0C5B8F0BCBDE8004170B5D1
:102C700000F071F8097EFC3E00F007B881EA03011C
:102C80004FF0000001F00041704781EA030100F0BD
:102C9000B0B8F0BCBDE800414FF0000021497047DA
:102CA000FFFDFBF9F7F5F4F2F0EEEDEBE9E8E6E411
:102CB000E3E1E0DEDDDBDAD8D7D5D4D3D1D0CFCD98
:102CC000CCCBCAC8C7C6C5C4C2C1C0BFBEBDBCBBD1
:102CD000BAB9B8B7B6B5B4B3B2B1B0AFAEADACABCC
:102CE000AAA9A8A8A7A6A5A4A3A3A2A1A09F9F9EA6
:102CF0009D9C9C9B9A999998979796959594939358
:102D0000929191908F8F8E8E8D8C8C8B8B8A8989EE
:102D10008888878786858584848383828281818071
:102D20000000FF070000F87F10F0004248BF40425B
:102D3000B0FA80F310FA03F10AD0C3F11D0303F5D2
:102D400080634FEA415002EB035202EBD1217047FE
:102D50004FF0000070470EF1020E2EF0030E5EF8E9
:102D6000046B364205D4012A43EB030515F5001F19
:102D700012D8012841EB010C1CF5001F0CD80ED114
:102D80004FEAD17C15F5001F0CEB4C0C0CF1020C3A
:102D900008BF4CEBD37C04E04FF0080C01E04FEA95
:102DA000D37C0CEB4C0526FA05F606F00706B6F1C7
:102DB000040C06D20EEB860CBDE870404CF0010C02
:102DC0006047DFE80CF0090B02024FF000414FF0C2
:102DD0000000A1F5002170BD19461046012851EBF5
:102DE000010418BFD4F5001484BF002001F0004195
:102DF00070BD0808A0F500114FEA310170470000CE
:102E000043004FEAD30C4FEA3C0C43401FBF40073E
:102E10000CF1605113F0FE4F70471CF0006F03D1AE
:102E200000200CF0004170470CF0004343EA507062
:102E300010B540EACC0000F00EF800BF0000009290
:102E40004FEA0001FFF7D5BF4FF000414FF00000FF
:102E5000A1F5002170470EF1020E2EF0030E5EF870
:102E6000044B244204D44FEA4102B2F17F4F11D8FF
:102E70004FEA4003B3F17F4F0CD80ED14FEAD07C1C
:102E8000B2F17F4F0CEB4C0C0CF1020C08BF4CEB79
:102E9000D17C04E04FF0080C01E04FEAD17C0CEB50
:102EA0004C0324FA03F404F00704B4F1040C06D232
:102EB0000EEB840CBDE810404CF0010C6047DFE8DD
:102EC0000CF0070802024FF00040A0F5800010BD92
:102ED0000846420018BFD2F1807288BF00F000405F
:102EE00010BDFF2141EAD050C0057047FDF735BB4A
:102EF0000CF00F03092B08BF082000F059800A2BA3
:102F00000BD0082B18BF704708BF1CF0400F0AD029
:102F10004FF000004FF0000170471CF0400F18BF49
:102F20004FF0004070471CF0100F08D020F07043A5
:102F300000F07F4242EAD3014FEA4370704700F04D
:102F4000604021F07F4242EA000201F07F4040EA07
:102F5000727070474FF0FF0C4CF4E06C1CEA115398
:102F60001CBF9CEA030C9445C2BFDA4201EB02513C
:102F70007047002B0DD0BCF1000F0FD0002A01F0DC
:102F80000041A4BF41F0E04141F07F614FF00000FB
:102F9000704701F000414FF00000704750EA0133E4
:102FA0004FF09B0C18BF4CF0806C7FF45DAD704708
:102FB0001CF4801F11D01CF4E02F03D06FEACC3139
:102FC000490070474FF04050EFF3008222F070420A
:102FD00042EA000282F3008870474FF00000704719
:102FE000010202030405060708090A0B0C0D0E0F67
:102FF000101000000000000000000102030406079A
:103000000809000000000102030400000240000063
:10301000000000A00000000005400000000000C803
:10302000000000000C4000000000409C0000000078
:10303000194000000020BCBE000000003440000029
:10304000BFC91B8E00000004B5400000504BCFD01C
:103050006607E2CF010000006C4100003E8251AAE9
:10306000DFEEA73401000000D9420000DCB5A0E289
:103070003A301F97FFFFFFFFB4450000FD25A0C8B1
:10308000E9A3C14FFFFFFFFFFF3F000000000080EA
:1030900000000000FF3F0000000000800000000072
:1030A000DC30000800000020340000002801000887
:1030B0001031000834000020FC0600004401000824
:1030C0001C00000043000000F8FFFFFF0C000000A0
:1030D0000E0000000F0000002E00000000000000A5
:1030E00000000000000000000000000000000000E0
:1030F00000000000000000000000000000000000D0
:103100000100000010000000000000000024F40096
:04000005080000ED02
:00000001FF
